S01300004F706472616368745F43312E7372656309
S113000045C000004BC0000049C0000047C00000CC
S113001045C0000043C0000041C000003FC00000D4
S11300203DC000003BC0000039C0000037C00000E4
S113003035C0000033C0000031C000002FC00000F4
S11300402DC000002BC0000029C0000027C0000004
S113005025C0000023C0000021C000001FC0000014
S11300601DC000001BC0000019C0000017C0000024
S113007015C0000013C0000011C000000FC0000034
S11300800DC000000BC0000009C0000011241FBEF9
S1130090CFEFD0E1DEBFCDBFBDD01EC1B1CF1816AA
S11300A019066CF420E030E0EFECF7E03197F1F75B
S11300B000C000002F5F3F4F82179307A9F70895F0
S11300C08FEF87BBBB98C09A82E58DB908958FB92D
S11300D0779BFECF089598B321E030E002C0220F51
S11300E0331F8A95E2F72095292328BB089598B3F6
S11300F021E030E002C0220F331F8A95E2F7292B5A
S113010028BB089580E0E7DF89E0E1DF8FEFDFDFE0
S113011080E0EDDF80E0DFDF8AE0D9DF8FE0D7DF4A
S113012080E0E5DF80E0D7DF8BE0D1DF83E0CFDF65
S113013080E0DDDF80E0CFDF8CE0C9DF81E0C7DF76
S113014080E0D5CF0895CF93DF93D82FC62F80E0DA
S1130150C2DF8D2FBCDF8C2FBADF80E0C8DFDF91D8
S1130160CF910895CF93DF9300D000D0CDB7DEB701
S1130170803127E2920790F44AE050E0BE016F5FBD
S11301807F4F6DD0698184E0DEDF6A8183E0DBDF4D
S11301906B8182E0D8DF6C8181E0D5DF0F900F9016
S11301A00F900F90DF91CF9108950F931F93CF93EA
S11301B0DF9300D01F92CDB7DEB79C0129513C4F8D
S11301C02F3C3740F8F49C01992324F42227332749
S11301D0281B390B8C014AE050E0BE016F5F7F4F52
S11301E0C9013DD0112314F06FE001C06AE084E03E
S11301F0AADF698183E0A7DF6A8182E0A4DF6B81E3
S113020081E0A1DF0F900F900F90DF91CF911F91AC
S11302100F910895CF9381E087BB52DF73DFC1E074
S113022060E08C2F90DFCF5FC530D1F788EE93E08C
S113023036DF83E292E296DF80ED97E030DF85EFF0
S113024090E090DF80ED97E02ADF8BEC91E0ADDF6A
S113025088EE93E024DF81E090E0CF910895453269
S1130260510518F4423008F004C0FB011082CB01A0
S11302700895BB274A3031F4992322F4BDE29095C6
S113028081959F4F01C0BB27FB015527AA27880FE3
S1130290991FAA1FA41710F0A41B83955051B9F7F6
S11302A0A05DAA3308F0A95DA193009779F7B11175
S11302B0B1931192CB0100C0DC01FC01672F719155
S11302C07723E1F7329704C07C916D937083629138
S10F02D0AE17BF07C8F30895F894FFCFE1
S9030000FC
