S01300004F706472616368745F43312E7372656309
S113000045C000004BC0000049C0000047C00000CC
S113001045C0000043C0000041C000003FC00000D4
S11300203DC000003BC0000039C0000037C00000E4
S113003035C0000033C0000031C000002FC00000F4
S11300402DC000002BC0000029C0000027C0000004
S113005025C0000023C0000021C000001FC0000014
S11300601DC000001BC0000019C0000017C0000024
S113007015C0000013C0000011C000000FC0000034
S11300800DC000000BC0000009C0000011241FBEF9
S1130090CFEFD0E1DEBFCDBF5ED1FEC1B1CF181628
S11300A019066CF420E030E0EFECF7E03197F1F75B
S11300B000C000002F5F3F4F82179307A9F70895F0
S11300C08FEF87BBBB98C09A82E58DB908958FB92D
S11300D0779BFECF089598B321E030E002C0220F51
S11300E0331F8A95E2F72095292328BB089598B3F6
S11300F021E030E002C0220F331F8A95E2F7292B5A
S113010028BB089580E0E7DF89E0E1DF8FEFDFDFE0
S113011080E0EDDF80E0DFDF8AE0D9DF8FE0D7DF4A
S113012080E0E5DF80E0D7DF8BE0D1DF83E0CFDF65
S113013080E0DDDF80E0CFDF8CE0C9DF81E0C7DF76
S113014080E0D5CF0895CF93DF93D82FC62F80E0DA
S1130150C2DF8D2FBCDF8C2FBADF80E0C8DFDF91D8
S1130160CF910895181619066CF420E030E0EAE007
S1130170F0E0BF012DD1CB012F5F3F4F18161906B8
S1130180C4F302C020E030E0C90108957F928F9249
S11301909F92AF92BF92CF92DF92EF92FF920F9312
S11301A01F93CF93DF93CDB7DEB78C01CDB6DEB608
S11301B0ADB6BEB6003187E21807C8F5C801D2DF74
S11301C07C01EDB7FEB7E81BF90B0FB6F894FEBF40
S11301D00FBEEDBF8DB79EB701964C014AE050E0CB
S11301E0BC01C8011CD195E0E916F10454F404E003
S11301F010E06FE0802FA7DF015011090E151F05D5
S1130200C4F71E141F046CF484017E2CE80CF91C42
S1130210F80161918F01872D96DF7A94E016F1063B
S1130220B9F70FB6F894BEBE0FBEADBE05C00FB68B
S1130230F894DEBE0FBECDBE0FB6F894DEBE0FBE80
S1130240CDBEDF91CF911F910F91FF90EF90DF9082
S1130250CF90BF90AF909F908F907F9008956F92B2
S11302607F928F929F92AF92BF92CF92DF92EF9242
S1130270FF920F931F93CF93DF93CDB7DEB76C013B
S1130280ADB6BEB68DB69EB689519C4F8F3C974095
S113029008F048C08601DD2024F4002711270C193A
S11302A01D09C8015FDF7C018DB79EB78E199F09B8
S11302B00FB6F8949EBF0FBE8DBFEDB7FEB7319653
S11302C03F014AE050E0BF01C801A9D0C70101962F
S11302D0059754F404E010E06FE0802F34DF015000
S11302E01109E016F106C1F7DD2014F06FE001C03A
S11302F06AE0DE2C81E08E0D26DF1E141F0464F4F8
S11303008301E60CF71CF80161918F018D2D1BDF31
S1130310DA940E151F05B9F70FB6F8949EBE0FBEFA
S11303208DBE05C00FB6F894BEBE0FBEADBE0FB6EF
S1130330F894BEBE0FBEADBEDF91CF911F910F9159
S1130340FF90EF90DF90CF90BF90AF909F908F90F1
S11303507F906F900895CF9381E087BBB1DED2DEAA
S1130360C1E060E08C2FEFDECF5FC530D1F788EEBF
S113037093E095DE83E292E209DF80ED97E08FDE81
S113038085EF90E003DF80ED97E089DE89E190E07E
S1130390FDDE80ED97E083DE84E090E0F7DE80ED23
S11303A097E07DDE85E39EEF5ADF80ED97E077DE10
S11303B082ED9FEF54DF80ED97E071DE8BEF9FEFCE
S11303C04EDF80ED97E06BDE81E090E0CF91089501
S11303D097FB072E16F4009406D077FD08D00BD0B7
S11303E007FC05D03EF4909581959F4F0895709534
S11303F061957F4F0895AA1BBB1B51E107C0AA1F3B
S1130400BB1FA617B70710F0A61BB70B881F991FB1
S11304105A95A9F780959095BC01CD010895453270
S1130420510518F4423008F004C0FB011082CB01DE
S11304300895BB274A3031F4992322F4BDE2909504
S113044081959F4F01C0BB27FB015527AA27880F21
S1130450991FAA1FA41710F0A41B83955051B9F734
S1130460A05DAA3308F0A95DA193009779F7B111B3
S1130470B1931192CB0100C0DC01FC01672F719193
S11304807723E1F7329704C07C916D937083629176
S10F0490AE17BF07C8F30895F894FFCF1F
S9030000FC
