S01300004F706472616368745F42332E7372656308
S113000045C0000058C0000056C0000054C00000A5
S113001052C0000050C000004EC000004CC00000A0
S11300204AC0000048C0000046C0000044C00000B0
S113003042C0000040C000003EC000003CC00000C0
S11300403AC0000038C0000036C0000034C00000D0
S113005032C0000030C000002EC000002CC00000E0
S11300602AC0000028C0000026C0000024C00000F0
S113007022C0000020C000001EC000001CC0000000
S11300801AC0000018C0000016C0000011241FBED2
S1130090CFEFD0E1DEBFCDBF11E0A0E0B1E0E4E3FB
S11300A0F1E000E00BBF02C007900D92A031B10750
S11300B0D9F730D03DC0A4CF181619066CF420E04F
S11300C030E0EFECF7E03197F1F700C000002F5F6C
S11300D03F4F82179307A9F708951F93CF93DF9398
S11300E08031910534F4FC01E050FF4F808185BBE1
S11300F00DC0C4E0D0E01BE715BB88EC90E0DCDF6A
S113010015BA88EC90E0D8DF2197B1F7DF91CF9151
S11301101F9108958FEF84BBC0E0D0E0CE01DDDFF6
S113012088EE93E0C9DF2196C131D105B9F7F4CF48
S1070130F894FFCF6D
S11301343F065B4F666D7D077F6F777C395E797B05
S9030000FC
