S02500004D6963726F636F6E74726F6C6C6572735F45696E646F706472616368742E737265631A
S113000045C0000058C0000056C0000054C00000A5
S113001052C0000050C000004EC000004CC00000A0
S11300204AC0000048C0000046C0000044C00000B0
S113003042C0000040C000003EC000003CC00000C0
S11300403AC0000038C0000036C0000034C00000D0
S113005032C0000030C000002EC000002CC00000E0
S11300602AC0000028C0000026C0000024C00000F0
S113007022C0000020C000001EC000001CC0000000
S11300801AC0000018C0000016C0000011241FBED2
S1130090CFEFD0E1DEBFCDBF11E0A0E0B1E0ECE1F5
S11300A0F3E000E00BBF02C007900D92AA32B10743
S11300B0D9F7FDD031C1A4CF109271008CE08093A8
S11300C0700084E080937400089584EA809374003F
S11300D0E4E7F0E080818823ECF7089584E98093D5
S11300E0740081E28A95F1F700000895809373000B
S11300F084E880937400E4E7F0E080818823ECF7DF
S11301000895811106C084EC80937400E4E7F0E064
S113011006C08130D9F784E880937400F7CF8081DA
S11301208823ECF78091730008951F93CF93DF9396
S1130130182FD62FC42FC9DF812F880FD7DF8D2F1B
S1130140D5DF8C2FD3DFCADFDF91CF911F910895C4
S1130150CF93DF93C82FD62FB8DF8C2F880FC6DF3D
S11301608D2FC4DFBBDFB1DF8C2F880F8160BEDF32
S113017081E0C7DFC82FB2DF8C2FDF91CF910895C4
S1130180CF93DF93FC01218121110FC0EC0140E0EA
S113019061E28081CADF40E061E88881C6DF4FEF19
S11301A067EE8881C2DF81E08983DF91CF91089572
S11301B0FF920F931F93CF93DF93EC01162F042F1D
S11301C0F22E8981811102C0CE01DADF1830F8F4F1
S11301D00830E8F4000F602F8881BADFFF2051F067
S11301E0112381F0115091E001C0990F1A95EAF79B
S11301F0492F09C0115091E001C0990F1A95EAF7EF
S1130200492F01C040E8482B602F88818EDFDF91A1
S1130210CF911F910F91FF900895CF92DF92EF92AB
S1130220FF920F931F93CF93DF937C016B01142FE5
S1130230FC018181811102C0C701A2DF1123A1F059
S1130240E601412F50E08A01000F111F400F511F9A
S11302508601040F151F2A8149816881C701A8DF1F
S11302602396C017D107B9F7DF91CF911F910F9152
S1130270FF90EF90DF90CF9008950F931F93CF934B
S11302808C01FC01818181110CC0C80179DF09C096
S113029040E06C2FF801808148DFCE5FC031C1F7A8
S11302A002C0C0E0F5CFCF911F910F910895CF9375
S11302B0DF93CDB7DEB7AE970FB6F894DEBF0FBEAF
S11302C0CDBFFADE80E789831A8281E78B831C82A3
S11302D0CE01019655DFCE01039652DFCE01019681
S11302E0CCDFCE010396C9DF8AE2E0E0F1E0DE0173
S11302F0159601900D928A95E1F74EE0BE016B5F71
S11303007F4FCE01019689DF4EE0BE016B5F7F4FC8
S10F0310CE01039682DFFFCFF894FFCFEC
S113031C01010102010101020102020105010106B0
S113032C0101050201060201010501020601030691
S10D033C010406010506010605018F
S9030000FC
