S01300004F706472616368745F42312E737265630A
S113000045C0000053C0000051C000004FC00000B4
S11300104DC000004BC0000049C0000047C00000B4
S113002045C0000043C0000041C000003FC00000C4
S1130030B8C000003BC0000039C0000037C0000059
S113004035C0000033C0000031C000002FC00000E4
S11300502DC000002BC0000029C0000027C00000F4
S113006025C0000023C0000021C000001FC0000004
S11300701DC000001BC0000019C0000017C0000014
S113008015C0000013C0000011C0000011241FBEE1
S1130090CFEFD0E1DEBFCDBF21E0A0E0B1E001C0F1
S11300A01D92A430B207E1F7EFD02DC1A9CFAB9ACE
S11300B08FE99FE00197F1F700C00000AB988FE94A
S11300C09FE00197F1F700C000000895CF938FEFF0
S11300D084BB15BAC0E2C5BBEADFC5BBE8DF80E874
S11300E085BBE5DF15BAE3DF80EF85BBE0DF15BA3A
S11300F0DEDF80E685BBDBDF15BAD9DF81E085BBB7
S1130100D6DFCF910895CF93C82F85BBAA98CFDFB0
S1130110C295C07FC5BBAA98CADFCF910895CF937B
S1130120C82F85BBAA9AC3DFC295C07FC5BBAA9A54
S1130130BEDFCF910895CF93DF93EC0188818823AC
S113014029F02196ECDF89918111FCCFDF91CF91C9
S1130150089581E0D8CF0895181619066CF420E0AC
S113016030E0EFE9FFE03197F1F700C000002F5FC6
S11301703F4F82179307A9F70895F8941FBC1EBC3C
S11301801DBC1CBC84E690E09BBD8ABD8EB5886016
S11301908EBD8EB585608EBD87B7806187BF78942C
S11301A008951F920F920FB60F9211240BB60F925F
S11301B02F933F934F935F936F937F938F939F936B
S11301C0AF93BF93EF93FF93CF93DF93CDB7DEB796
S11301D02597DEBFCDBFC89B23C0809100019091BD
S11301E00101892BA1F54AE0BE016F5F7F4F809129
S11301F002019091030154D0ACDFCE0101969BDF44
S113020081E090E0909301018093000180910201CC
S1130210909103010196909303018093020117C00A
S11302208091000190910101019789F44AE0BE0197
S11302306F5F7F4F809102019091030131D089DF7C
S1130240CE01019678DF1092010110920001809195
S1130250020188BB0F900F900F900F900F90DF91C9
S1130260CF91FF91EF91BF91AF919F918F917F912A
S11302706F915F914F913F912F910F900BBE0F9013
S11302800FBE0F901F9018958FEF87BB1ABA81BBD2
S11302901DDF80E838DF71DF82E390E05DDFFCCFB3
S11302A0BB274A3031F4992322F4BDE2909581951D
S11302B09F4F01C0BB27FB015527AA27880F991F11
S11302C0AA1FA41710F0A41B83955051B9F7A05D81
S11302D0AA3308F0A95DA193009779F7B111B193FE
S11302E01192CB0100C0DC01FC01672F71917723CF
S11302F0E1F7329704C07C916D9370836291AE17DD
S10D0300BF07C8F30895F894FFCF77
S9030000FC
