S01300004F706472616368745F42312E737265630A
S113000045C000004BC0000049C0000047C00000CC
S113001045C0000043C0000041C000003FC00000D4
S11300203DC000003BC0000039C0000037C00000E4
S11300305BC0000033C0000031C000002FC00000CE
S11300402DC000002BC0000029C0000027C0000004
S113005025C0000023C0000021C000001FC0000014
S11300601DC000001BC0000019C0000017C0000024
S113007015C0000013C0000011C000000FC0000034
S11300800DC000000BC0000009C0000011241FBEF9
S1130090CFEFD0E1DEBFCDBF36D03CC0B1CF181614
S11300A019066CF420E030E0EFE9FFE03197F1F756
S11300B000C000002F5F3F4F82179307A9F70895F0
S11300C0F8941FBC1EBC1DBC1CBC80E197E29BBD08
S11300D08ABD8EB588608EBD8EB585608EBD87B7AE
S11300E0806187BF789408951F920F920FB60F9284
S11300F011248F9388B3805888BB8F910F900FBEC3
S11301000F901F9018958FEF87BBDADF82E390E0A2
S10B0110C6DFFCCFF894FFCF19
S9030000FC
