S01300004F706472616368745F42352E7372656306
S113000045C0000058C0000056C0000054C00000A5
S113001052C0000050C000004EC000004CC00000A0
S11300204AC0000048C0000046C0000044C00000B0
S113003042C0000040C000003EC000003CC00000C0
S11300403AC0000038C0000036C0000034C00000D0
S113005032C0000030C000002EC000002CC00000E0
S11300602AC0000028C0000026C0000024C00000F0
S113007022C0000020C000001EC000001CC0000000
S11300801AC0000018C0000016C0000011241FBED2
S1130090CFEFD0E1DEBFCDBF11E0A0E0B1E0E8E7F3
S11300A0F1E000E00BBF02C007900D92AC30B10745
S11300B0D9F759D05FC0A4CF982F907F95BBAB9A46
S11300C0EFECF7E03197F1F700C0000094E095BB46
S11300D0F0E18F9FC001112485BBAB9A8FEC97E0B0
S11300E00197F1F700C0000015BA089588E2E4DF33
S11300F082E0E2DF8CE0E0DF86E0DEDF80E8DCCF78
S11301000895982F907F95BB95B39C6095BBEFECB9
S1130110F7E03197F1F700C0000094E095BBF0E1FF
S11301208F9FC001112485BB85B38C6085BB8FEC88
S113013097E00197F1F700C0000015BA08950F93F6
S11301401F93CF93DF938C0180E8B6DFE801005F53
S11301501F4F8991D6DFC017D107D9F7DF91CF910F
S11301601F910F9108958FEF84BBC0DF80E091E071
S10B0170E6DFFFCFF894FFCF96
S10F017868656C6C6F20776F726C64001B
S9030000FC
