S01300004F706472616368745F42352E7372656306
S113000045C0000058C0000056C0000054C00000A5
S113001052C0000050C000004EC000004CC00000A0
S11300204AC0000048C0000046C0000044C00000B0
S113003042C0000040C000003EC000003CC00000C0
S11300403AC0000038C0000036C0000034C00000D0
S113005032C0000030C000002EC000002CC00000E0
S11300602AC0000028C0000026C0000024C00000F0
S113007022C0000020C000001EC000001CC0000000
S11300801AC0000018C0000016C0000011241FBED2
S1130090CFEFD0E1DEBFCDBF11E0A0E0B1E0E2EAF6
S11300A0F1E000E00BBF02C007900D92AE30B10743
S11300B0D9F757D074C0A4CFAB9A8FEC97E00197CF
S11300C0F1F700C00000AB988FEC97E00197F1F7CF
S11300D000C000000895CF938FEF84BB15BAC0E22F
S11300E0C5BBEADFC5BBE8DF80E885BBE5DF15BA41
S11300F0E3DF80EF85BBE0DF15BADEDF80E685BB9A
S1130100DBDF15BAD9DF81E085BBD6DFCF91089557
S1130110CF93C82F85BBAA98CFDFC295C07FC5BB3C
S1130120AA98CADFCF9108958058F2CF0895CF934B
S1130130C82F85BBAA9AC0DFC295C07FC5BBAA9A47
S1130140BBDFCF910895CF93DF93EC01888188239F
S113015029F02196ECDF89918111FCCFDF91CF91B9
S113016008958FEF81BBB7DF80E091E0ECDF80E0A2
S113017090E0DADFC0E0D0E02FEF89E698E121508B
S113018080409040E1F700C000002196CE01CCDF12
S1130190C530D10589F780E090E0C6DFEBCFF89455
S10501A0FFCF8B
S11101A248656C6C6F20776F726C64210000EE
S9030000FC
