S01300004F706472616368745F42322E7372656309
S113000045C000005DC0000074C0000047C000008F
S113001045C0000043C0000041C000003FC00000D4
S11300203DC000003BC0000039C0000037C00000E4
S113003035C0000033C0000031C000002FC00000F4
S11300402DC000002BC0000029C0000027C0000004
S113005025C0000023C0000021C000001FC0000014
S11300601DC000001BC0000019C0000017C0000024
S113007015C0000013C0000011C000000FC0000034
S11300800DC000000BC0000009C0000011241FBEF9
S1130090CFEFD0E1DEBFCDBF43D058C0B1CF1816EB
S11300A019066CF420E030E0EFECF7E03197F1F75B
S11300B000C000002F5F3F4F82179307A9F70895F0
S11300C01F920F920FB60F9211248F939F9382B3B6
S11300D090E0880F991F009711F481E090E092B3AB
S11300E0892B82BB9F918F910F900FBE0F901F9011
S11300F018951F920F920FB60F9211248F939F930E
S113010082B390E0009711F48FEB90E092B3892BC7
S113011082BB9F918F910F900FBE0F901F901895E7
S11301208FEF81BB81E084BB82BBEAE6F0E0808193
S11301308B60808389B7836089BF7894C1E085B37D
S11301408C2785BB84EF91E0AADFF9CFF894FFCF29
S9030000FC
