S01300004F706472616368745F42332E7372656308
S113000045C0000058C0000056C0000054C00000A5
S113001052C0000050C000004EC000004CC00000A0
S11300204AC0000048C0000046C0000044C00000B0
S113003042C0000040C000003EC000003CC00000C0
S11300403AC0000038C0000036C0000034C00000D0
S113005032C0000030C000002EC000002CC00000E0
S11300602AC0000028C0000026C0000024C00000F0
S113007022C0000020C000001EC000001CC0000000
S11300801AC0000018C0000016C0000011241FBED2
S1130090CFEFD0E1DEBFCDBF11E0A0E0B1E0E6E5F7
S11300A0F2E000E00BBF02C007900D92A230B1074E
S11300B0D9F76AD0CEC0A4CFAB9A89EF90E001976C
S11300C0F1F700C00000AB9889EF90E00197F1F7D9
S11300D000C000000895CF938FEF84BB15BAC0E22F
S11300E0C5BBEADFC5BBE8DF80E885BBE5DF15BA41
S11300F0E3DF80EF85BBE0DF15BADEDF80E685BB9A
S1130100DBDF15BAD9DF81E085BBD6DFCF91089557
S1130110CF93C82F85BBAA98CFDFC295C07FC5BB3C
S1130120AA98CADFCF910895CF93C82F85BBAA9A06
S1130130C3DFC295C07FC5BBAA9ABEDFCF91089525
S1130140CF93DF93EC018881882329F02196ECDF9B
S113015089918111FCCFDF91CF910895181619066A
S11301606CF420E030E0E9EFF0E03197F1F700C003
S113017000002F5F3F4F82179307A9F7089580EE81
S113018087B986EE86B90895CF93DF93CDB7DEB7EE
S11301902A970FB6F894DEBF0FBECDBF1092610050
S11301A08FEF8ABB87BB81BBEADF95DF84B188BB55
S11301B085B18BBB84E690E0D1DF80E8A9DF80E0E5
S11301C091E0BEDF8BB34AE050E0BE016F5F7F4F2A
S11301D090E002D0B5DFEACF4532510518F4423041
S11301E008F004C0FB011082CB010895BB274A30FC
S11301F031F4992322F4BDE2909581959F4F01C07B
S1130200BB27FB015527AA27880F991FAA1FA417EC
S113021010F0A41B83955051B9F7A05DAA3308F0E0
S1130220A95DA193009779F7B111B1931192CB0114
S113023000C0DC01FC01672F71917723E1F732974D
S113024004C07C916D9370836291AE17BF07C8F3AD
S10902500895F894FFCFAD
S10502560000A2
S9030000FC
